:100000000C941D060C944E060C944E060C944E0651
:100010000C944E060C944E060C944E060C944E0610
:100020000C944E060C94202F0C94202F0C94202F0F
:100030000C944E060C944E060C944E060C944E06F0
:100040000C944E060C9421510C944E060C944E06C2
:100050000C944E060C944E060C944E060C94D62E20
:100060000C944E060C94211E0C94F71D0C944E0615
:100070000C944E060C944E060C944E060C944E06B0
:100080000C94F3500C944E060C944E060C944E06B1
:100090000C94CD1D0C94A31D0C944E060C94D756B5
:1000A0000C944E060C944E060C94C5500C944E06BF
:1000B0000C944E060C944E060C944E060C949750DD
:1000C0000C944E060C944E060C944E060C94791D1E
:1000D0000C944F1D0C944E060C94251D0C94FB1C87
:1000E0000C944E060C94435D0C949E8E0C94C58E1D
:1000F0000C9405270C94D58B0C94EA6D0C949B8E74
:100100000C94AA610C9464070C94AD5B0C945E276C
:100110000C9497060C948E200C9420290C94701942
:100120000C94B6200C94C1250C9441080C949F5D4E
:100130000C94DC8B0C944B080C94922E0C9411298B
:100140000C94E82C0C9454080C9447080C94525CC2
:100150000C9433080C94858E0C9486610C94E18B7E
:100160000C9480540C9494060C941E080C948420D7
:100170000C94C48B0C94340A0C946A2C0C94942C1C
:100180000C9447290C94543E0C94A38E0C943D2C53
:100190000C94A2200C9434260C94D5280C94362769
:1001A0000C94FA7C0C9495060C94116B0C94710AC7
:1001B0000C94C08E0C9461200C94C88E0C947659CB
:1001C0000C9457200C947A530C944F200C94988ED6
:1001D0000C9425190C942D290C94076C0C94375A07
:1001E0000C943D200C9424200C9455080C94A326C8
:1001F0000C94E4280C94151A0C943A290C94C945D3
:100200000C94AA8B0C94A06D0C9433200C94A666CD
:100210000C94620A0C94AB8E0C941A080C9499619D
:100220000C940E070C94D6630C94A8660C94B98EAB
:100230000C9439080C948A0C0C94E0250C94986664
:100240000C945C8F0C94573E0C9475200C94DD0636
:100250000C94D4260C942F080C94BE2C0C94BF8BB9
:100260000C94F94E0C9459080C94A68E0C94F32817
:100270000C946D460C9426080C9496060C94C62893
:100280000C94840A0C9413700C9400070C946B204B
:100290000C94870C0C9435190C9447200C94B28E56
:1002A0000C94AC200C9472260C9414080C94EC065C
:1002B0000C943D080C94B10A0C94326E0C94982066
:1002C0000C94AB5B0C944F080C94868F0C94C98BE8
:1002D0000C942D190C9402290C9446680C94532606
:1002E0000C9422080C9473660C94472E0C942920CD
:1002F0000C9429080C941C200C94B1074E414E49D3
:100300004E495459494E46CDCCCC3D0AD7233C17D3
:10031000B7D13877CC2B329595E6241FB14F0A0020
:100320000020410000C84200401C4620BCBE4CCA10
:100330001B0E5AAEC59D7400407A10F35A00A0728D
:100340004E18090010A5D4E80000E8764817000010
:10035000E40B54020000CA9A3B000000E1F50500DE
:100360000080969800000040420F000000A0860127
:10037000000000102700000000E8030000000064F7
:1003800000000000000A0000000000010000000062
:10039000002C76D888DC674F0823DFC1DFAE59E137
:1003A000B1B796E5E3E453C63AE651997696E8E6A6
:1003B000C28426EB898C9B62ED407C6FFCEFBC9C79
:1003C0009F40F2BAA56FA5F490055A2AF75C936B8B
:1003D0006CF9676DC11BFCE0E40D47FEF520E6B546
:1003E00000D0ED902E0300943577050080841E0820
:1003F0000000204E0A000000C80C333333330F983E
:100400006E12831141EF8D2114893BE65516CFFE04
:10041000E6DB18D1844B381BF77C1D901DA4BBE490
:1004200024203284725E228100C9F124ECA1E53DD2
:10043000274D6F64756C65206E6F6E206465746502
:1004400063746520212121004E6F6E20636F6E6EF4
:1004500065637465006F2C732C30006F2C65632C02
:10046000310043616C2C6472790043616C2C004351
:10047000616C2C686967682C0043616C2C6D696441
:100480002C0043616C2C6C6F772C00524544454D19
:10049000415252414745204D414E55454C2044451F
:1004A000204C2741515541424F554E5300506173E6
:1004B00020646520666963686965722000496D7013
:1004C0006F72746174696F6E2064652000496D708D
:1004D0006F72746174696F6E2064657320706172ED
:1004E000616D657472657320706172206465666108
:1004F000756C742C204F4B202100496D706F727405
:100500006174696F6E2064657320706172616D65DE
:1005100074726573206465206C27656570726F6DF9
:100520002C204F4B202100627567206D656D6F692F
:10053000726520636F6D706C657465724D65737361
:10054000616765416C6572746500627567206D65F1
:100550006D6F69726520636F6D706C657465724D47
:10056000657373616765416C657274655068206E70
:1005700069763200627567206D656D6F69726520FE
:10058000636F6D706C657465724D657373616765DB
:10059000416C657274655068206E69763100205038
:1005A00068203A2000627567206D656D6F6972651D
:1005B00020636F6D706C657465724D6573736167F0
:1005C00065416C6572746554656D706572617475B2
:1005D0007265206E69763100627567206D656D6F9A
:1005E00069726520636F6D706C657465724D6573BB
:1005F00073616765416C6572746554656D70657291
:100600006174757265206E69763200627567206D5F
:10061000656D6F69726520636F6D706C657465726E
:100620004D657373616765416C6572746554656D82
:100630007065726174757265206E6976330020642E
:100640006567726565002054656D706572617475CB
:100650007265203A2000005EBCE2613FDD83C29CEF
:100660007E20A3FD1F41009D23BE46DB65F88C1153
:10067000AF32CA57E9741F1C1F1E1F1E1F1F1E1FEB
:100680001E00000A0B02090C0D0E080703040100EE
:10069000000000000000000000000000000000005A
:1006A0000000000000000000000000000012111017
:1006B000000000000000000000000000000000003A
:1006C00000000000000000496E697469616C697384
:1006D0006174696F6E206465206C27486F726C6F5F
:1006E00067652C204F4B202100486F726C6F676547
:1006F000206A616D61697320696E697469616C69F2
:100700007365206F7520706C75732064652062615D
:100710007474657269652021006C27486F726C6F74
:100720006765206120657465206465746563746520
:100730006500506173206465207265706F6E73652B
:10074000206465206C27486F726C6F6765202121DB
:10075000210044454D415252414745204445204CDB
:100760002741515541424F554E53006F2C732C3148
:10077000006F2C7464732C30006F2C73672C300066
:100780006F2C65632C300056332E30004C274151BE
:100790005541424F554E27530044414E5300424964
:1007A000454E56454E55450000417563756E6520B2
:1007B0007265706F6E7365206475206D6F64756C03
:1007C0006520576966692021212100496E69746995
:1007D000616C69736174696F6E206475206D6F64FC
:1007E000756C6520576966692C204F4B20210049A4
:1007F0006E697469616C69736174696F6E20647588
:10080000206D6F64756C652057696669202E2E2EE9
:1008100000417563756E65207265706F6E7365203B
:100820006475206D6F64756C652047736D202121A0
:100830002100496E697469616C69736174696F6ED6
:10084000206475206D6F64756C652047736D2C2076
:100850004F4B2021004572726575722064652070CF
:1008600061737361676520656E206D6F64652072CA
:100870006F7574616765202121210045727265756D
:1008800072206465207061737361676520656E20F6
:100890006D6F64652074657874652021212100499D
:1008A0006E697469616C69736174696F6E206475D7
:1008B000206D6F64756C652047736D202E2E2E2081
:1008C00000496E697469616C69736174696F6E2047
:1008D0006475206C6563746575722064652063615E
:1008E0007274652053442C204F4B202100417563C6
:1008F000756E65207265706F6E7365206465206C1F
:1009000061206361727465205344202121210049D4
:100910006E697469616C69736174696F6E20646576
:10092000206C612063617274652053442E2E2E204A
:10093000004445555820736F6E64657320646520CC
:1009400074656D7065726174757265206465746537
:1009500063746565732C204F4B202100554E452054
:10096000736F6E64652064652074656D7065726177
:10097000747572652064657465637465652C204FB9
:100980004B202100417563756E6520736F6E646541
:100990002064652074656D70657261747572652080
:1009A00064657465637465652021212100496E6961
:1009B0007469616C69736174696F6E20646573201A
:1009C000736F6E6465732064652074656D70657205
:1009D0006174757265202E2E2E2000496E6974692F
:1009E000616C69736174696F6E206465206C27485F
:1009F0006F726C6F67652E2E2E200044656D6172DC
:100A0000726167652C206368617267656D656E74DD
:100A10002064657320706172616D65747265730026
:100A200020454446204F4B0020436F75707572651A
:100A3000204544460041637475656C6C656D656E58
:100A4000742000204E697665617520736563757248
:100A500069746520646563616E74652C20656375D7
:100A60006D657572202B206F736D6F6C6174657589
:100A700072204F46460020476F64657420706C6595
:100A8000696E2C206563756D657572204F46460052
:100A9000204F736D6F6C6174696F6E204F4E002034
:100AA00054726F70206465206465636C656E636862
:100AB000656D656E74206465206C276F736D6F6C57
:100AC00061746575722C206F736D6F6C61746575E0
:100AD00072204F4646002074656D70732064652057
:100AE00072656D706C6973736167652064657061B0
:100AF000737365002052657365727665207669644C
:100B00006500414C455254452000204E6976656190
:100B10007520736563757269746520646563616EC1
:100B20007465204F4B0046696E206427616C6572C6
:100B300074652C002A2E2A2E2A2E2A2E2A2E2A20AE
:100B400046494E2044552046494348494552202AAB
:100B50002E2A2E2A2E2A2E2A2E2A00000021002498
:100B60000027002A002D003000330001010000049E
:100B70000107010A0100002200250028002B002E99
:100B8000003100340002010000050108010B0100E2
:100B90000020002300260029002C002F0032000036
:100BA0000100000301060109010505050507050807
:100BB000080808020202020A0A08080404040401E0
:100BC0000101010101010103030303030303030402
:100BD0000707070C0C0C0C0C0C0C0C020202020692
:100BE000060606060606060B0B0B0B0B0B0B0B0182
:100BF000021020200808102040102040800201022E
:100C000001080402010102040810204080804020F5
:100C10001008040201800402018040201008040230
:100C200001080402010102040810204080010204AE
:100C3000081020408000868FFA7C11241FBECFEF61
:100C4000D1E2DEBFCDBF00E00CBF15E0A0E0B2E016
:100C5000E0ECF6E601E00BBF02C007900D92A43D68
:100C6000B107D9F728E1A4EDB5E001C01D92A83481
:100C7000B207E1F716E0CCE1D6E000E006C021972C
:100C80000109802FFE010E948BAECB31D10780E09D
:100C90000807A9F70E94FE7C0C944EB30C94000048
:100CA000CF93DF93EC019A01AB01E889F98982E0E7
:100CB0008083211581EE38074105510581F160E0FF
:100CC00079E08DE390E00E94FCAC215031094109AC
:100CD00051095695479537952795EC85FD851082E6
:100CE000EE85FF852083188EEC89FD8986E0808360
:100CF000EA89FB89808180618083EA89FB89808120
:100D000088608083EA89FB89808180688083EA89A2
:100D1000FB8980818F7D8083DF91CF910895E88961
:100D2000F989108220E1D9CF089508950895AF92EE
:100D3000BF92CF92DF92EF92FF920F931F93CF93C8
:100D4000DF936C017B018B01040F151FEB015E012A
:100D5000AE18BF08C017D10759F06991D601ED91BF
:100D6000FC910190F081E02DC6011995892B79F74E
:100D7000C501DF91CF911F910F91FF90EF90DF9010
:100D8000CF90BF90AF900895FC01A089B1898C915C
:100D9000A689B78982FD0FC09C91818D8F5F8F736B
:100DA000228D821749F0A18DAE0FBF2FB11D5D9628
:100DB0009C93818F08958C910895FC01538D448DEF
:100DC000252F30E0842F90E0821B930B541710F0F6
:100DD000CF96089501970895FC01918D828D981703
:100DE00061F0A28DAE0FBF2FB11D5D968C91928DDB
:100DF0009F5F9F73928F90E008958FEF9FEF08950C
:100E0000FC01918D828D981731F0828DE80FF11DD4
:100E1000858D90E008958FEF9FEF0895FC01918DEF
:100E2000228D892F90E0805C9F4F821B91098F73E8
:100E3000992708958FE399E00E940E0721E0892BFE
:100E400009F420E0822F08958CED99E00E940E07AE
:100E500021E0892B09F420E0822F089589E79AE0A8
:100E60000E940E0721E0892B09F420E0822F0895CB
:100E700086E19BE00E940E0721E0892B09F420E027
:100E8000822F0895FC01A48DA80FB92FB11DA35A7C
:100E9000BF4F2C91848D90E001968F739927848F9A
:100EA000A689B7892C93A089B1898C9183708064BD
:100EB0008C93938D848D981306C00288F389E02D5E
:100EC00080818F7D80830895EF92FF920F931F930F
:100ED000CF93DF93EC0181E0888F9B8D8C8D9813ED
:100EE0001AC0E889F989808185FF15C09FB7F894F9
:100EF000EE89FF896083E889F98980818370806445
:100F000080839FBF81E090E0DF91CF911F910F918F
:100F1000FF90EF900895F62E0B8D10E00F5F1F4F9E
:100F20000F731127E02E8C8D8E110CC00FB607FCAD
:100F3000FACFE889F989808185FFF5CFCE010E943B
:100F40004207F1CFEB8DEC0FFD2FF11DE35AFF4F60
:100F5000F0829FB7F8940B8FEA89FB8980818062C9
:100F6000CFCFCF93DF93EC01888D8823B9F0AA8986
:100F7000BB89E889F9898C9185FD03C0808186FD54
:100F80000DC00FB607FCF7CF8C9185FFF2CF8081A3
:100F900085FFEDCFCE010E944207E9CFDF91CF91CF
:100FA000089580E090E0892B29F00E943807811194
:100FB0000E94000080E090E0892B29F00E942E071B
:100FC00081110E94000080E090E0892B29F00E94AE
:100FD000240781110E94000080E090E0892B29F015
:100FE0000E941A0781110C940000089581508231EB
:100FF00008F05AC0E82FF0E08827EE5FF74F8F4FD8
:101000000C948BAE2208260814081A081E085408EF
:1010100029082F08330839083D08410847084B08BC
:1010200054084F0855085908809180008F778093A5
:1010300080000895809180008F7DF9CF809180009D
:10104000877FF5CF84B58F7784BD089584B58F7D74
:10105000FBCF8091B0008F778093B000089580918E
:10106000B0008F7DF9CF809190008F7780939000B2
:101070000895809190008F7DF9CF80919000877FB7
:10108000F5CF8091A0008F778093A0000895809184
:10109000A0008F7DF9CF8091A000877FF5CF809150
:1010A00020018F77809320010895809120018F7D0A
:1010B000F9CF80912001877FF5CFCF93DF93282F41
:1010C00030E0F901EF57F94F8491F901E151F44F04
:1010D000D491F901E755F44FC491CC23A1F08111CB
:1010E0000E94F607EC2FF0E0EE0FFF1FE157F44FE0
:1010F000A591B491EC91ED2381E090E009F480E0BA
:10110000DF91CF91089580E090E0FACF863308F028
:10111000865320917B00982F9870277F922B909375
:101120007B008770806480937C0080917A0080646B
:1011300080937A0080917A0086FDFCCF80917800C0
:10114000909179000895FC019C01255F3F4F80E05C
:1011500080FB879587F99191890FE217F307C1F713
:101160000895982F803290F0877F823279F09A33F9
:1011700069F0892F8F7B8C3349F082EC890F8230A4
:1011800028F081E09C3519F080E0089581E0089511
:101190008F929F92AF92BF92CF92DF92EF92FF9287
:1011A000CF93DF93EC016A017B0180E8C81A83E4E6
:1011B000D80A8DE6E80A88E3F80A8CE3882E912C99
:1011C000A12CB12CC701B601A50194010E94FCAC71
:1011D0006D83CA01B901A50194010E94FCAC6C8326
:1011E000C701B60120E13EE040E050E00E94FCACC7
:1011F000CA01B90128E130E040E050E00E94FCACB7
:101200006B83C701B60120E831E541E050E00E9460
:10121000FCAC188263E97EEF8881982F937041E0DF
:1012200050E011F050E040E0FA01E359FE4F2E1774
:101230003F0740F0FB01E41BF50B2E0F3F1F8F5FB4
:101240008883EACF81E0898389818C30A0F4482F9C
:101250004150550BFA01EA58F94FE491911103C03E
:10126000823009F4EF5FF0E02E173F0720F02E1BCD
:101270003F0B8F5FE8CF2F5F2A83DF91CF91FF90E5
:10128000EF90DF90CF90BF90AF909F908F90089598
:10129000DC0150E0E6E7F6E081E0861730F4949157
:1012A000490F511D8F5F3196F8CF633038F0CD0173
:1012B00083709927892B11F44F5F5F4F9D012D5F3C
:1012C0003F4F36952795369527956DE671E0A69F99
:1012D000C001A79F900DB69F900D11240197820F1A
:1012E000931F840F951F0895EF92FF920F931F9302
:1012F000CF93DF93EC0188814A81698190E00E945D
:1013000048099C01A8E1B0E00E941EAD2B817B0141
:101310008C01E20EF11C011D111DA8019701ACE327
:10132000B0E00E94E9AC2C817B018C01E20EF11C43
:10133000011D111DA80197010E94E9ACAB01BC0180
:101340009D81892F90E0B0E0A0E080589C4BA2499D
:10135000B74C8A019B01080F191F2A1F3B1FC901A7
:10136000B801DF91CF911F910F91FF90EF900895F9
:10137000CF92DF92EF92FF92CF93DF93EC01603236
:1013800082E07807CCF5653B710514F064EB70E002
:10139000898128E830E0281B310987FD3395220F29
:1013A000331F220F331F6901330FEE08FF088A81B4
:1013B00028E532E0281B310987FD3395220F331FC2
:1013C000220F331F032E000C440B550B2C193D0923
:1013D0004E095F09DB0177FF02C0B0E0A0E00E9488
:1013E000F4AC24EB30E040E050E00E94CAACC20E06
:1013F000D31EE41EF51EB601E881E03370F52981A5
:1014000088E890E0821B910927FD9395880F991F2A
:10141000880F991F681779077CF02A8188E592E088
:10142000821B910927FD9395880F991F880F991F9B
:10143000681779070CF4CB010297880F991F4FB7F3
:10144000F8942E2F30E0F901EE0FFF1FE20FF31F8B
:10145000EC50F44F928381834FBFDF91CF91FF9087
:10146000EF90DF90CF9008958091EB089091EC0879
:10147000891B990B08952091A806260F3327331F47
:1014800021323105ECF420913909FC0190E080E033
:10149000243069F082E00895A091A8062191AC0162
:1014A0004857594FA40FB52FB11D2C93019686179D
:1014B00098F38091A806680F6093A80680E00895CD
:1014C00081E00895E091EC088091EB08E81730F492
:1014D000F0E0E75EF64F808190E008958FEF9FEF98
:1014E00008959091EC088091EB082FEF3FEF98174B
:1014F00048F4E92FF0E0E75EF64F208130E09F5F8F
:101500009093EC08C9010895CF92DF92EF92FF9279
:101510000F931F93CF93DF937C01CB018A0120911E
:10152000F008222389F0EB016B01C40ED51ECC1507
:10153000DD0569F06991D701ED91FC910190F08191
:10154000E02DC7011995F3CF642F0E943B0AC80113
:10155000DF91CF911F910F91FF90EF90DF90CF908F
:101560000895CF93DF931F92CDB7DEB769832091A3
:10157000F0082223F9F02091ED08203258F021E004
:1015800030E0FC013383228390E080E00F90DF9114
:10159000CF9108958091EE08E82FF0E0E959F94FD6
:1015A000998190838F5F8093EE088093ED0881E0AE
:1015B00090E0ECCF61E0CE0101960E943B0AF7CFAC
:1015C000CF93DF93EB01AB01BC018FE399E00E9465
:1015D000970621E0C817D90709F020E0822FDF9194
:1015E000CF9108958F929F92AF92BF92CF92DF9248
:1015F000EF92FF924B015C0120E13EE040E050E0C1
:101600000E94FCAC2093C4073093C5074093C607E3
:101610005093C7078CE3C82ED12CE12CF12CC501C7
:10162000B401A70196010E94FCACCA01B901A7014F
:1016300096010E94FCAC60934F0670935006809315
:10164000510690935206FF90EF90DF90CF90BF909D
:10165000AF909F908F900895CF92DF92EF92FF927C
:101660000F931F93CF93DF93C0915F08D0916008D1
:10167000009161081091620820916308309164081C
:10168000E9E1F6E00083118322833383CE0165E034
:1016900070E00E9463AEAB0170E060E0D901C80168
:1016A000840F951FA61FB71F84839583A683B783D6
:1016B000840F951FA61FB71F80879187A287B387C6
:1016C000840F951FA61FB71F84879587A687B787A6
:1016D000CE01B0E0A0E0080F191F2A1F3B1FE9E070
:1016E000F6E00487158726873787041B150B260B22
:1016F000370B0087118722873387041B150B260BB6
:10170000370B0483158326833783041B150B260BA5
:10171000370B008311832283338300916508109176
:101720006608209167083091680868017901C81A35
:10173000D90AEA0AFB0AD701C601E9EFF5E0848776
:101740009587A687B787840F951FA61FB71F808729
:101750009187A287B387840F951FA61FB71F848325
:101760009583A683B783840F951FA61FB71F808319
:101770009183A283B383E9EEF5E000831183228392
:101780003383041B150B260B370B04831583268329
:101790003783041B150B260B370B00871187228715
:1017A0003387041B150B260B370B048715872687F9
:1017B0003787DF91CF911F910F91FF90EF90DF90CE
:1017C000CF9008958F929F92AF92BF92CF92DF9267
:1017D000EF92FF92DC01D096ED91FC91D19730977A
:1017E000A1F0808C918CA28CB38CC12CD12C760171
:1017F0009401A501B601C701FF90EF90DF90CF9053
:10180000BF90AF909F908F900895D296ED91FC91EC
:10181000309749F080889188A288B388C488D58899
:10182000E688F788E5CF812C912CA12CB12CC12C16
:10183000D12CE12CF12CDCCFAF92BF92CF92DF9272
:10184000EF92FF920F931F93DC01D096ED91FC91E4
:10185000D197309731F1808140E050E0BA0183FFA9
:101860000CC0408D518D628D738D80899189A289C4
:10187000B389481B590B6A0B7B0B4115B0E85B071A
:101880006105710520F04FEF5FE760E070E0CA018D
:101890001F910F91FF90EF90DF90CF90BF90AF908E
:1018A0000895D296ED91FC9180E090E0309781F31D
:1018B00084A583FF23C020893189428953896489A3
:1018C000758986899789A080B180C280D380E480A1
:1018D000F580068117810E9424AFF22FE32F2F3F5E
:1018E0003F4741055105610571058105910519F0D5
:1018F00010F0FFEFEFE78F2F9E2FCACF20E030E0F0
:1019000040E050E060E070E080E090E0E6CF0C96D0
:101910000C941C0C90E080E00895CF93DF9300D0EE
:1019200000D000D0CDB7DEB7BE016F5F7F4F0E9401
:10193000857B882331F08D818F33A9F020F48F319E
:10194000A1F080E007C08F3521F08F37D1F78CE010
:1019500001C08BE029960FB6F894DEBF0FBECDBF55
:10196000DF91CF9108958AE0F5CF89E0F3CFCF934F
:10197000DF9300D000D0CDB7DEB7CE0101960E9434
:1019800065752C812831E0F52093A5074D814093A2
:10199000A607EE81E093A7078B81809348068A8192
:1019A00080934706898190E08053984F9093460634
:1019B000809345068CE3489FA00111245093700743
:1019C00040936F0730E0A0E1BEE00E941EAD6E0FB5
:1019D000711D811D911D640F751F811D911D6093E7
:1019E0007F077093800780938107909382072696E4
:1019F0000FB6F894DEBF0FBECDBFDF91CF91089533
:101A00001092A5071092A6071092A70710924806F9
:101A100010924706109246061092450610927007E3
:101A200010926F0710927F07109280071092810723
:101A300010928207DCCFEBE8F8E08BE4DF011D9227
:101A40008A95E9F70895E0EDF7E08BE4DF011D9258
:101A50008A95E9F708950F931F93CF93DF93EC01D5
:101A600088819981009759F02A813B812617370791
:101A700030F081E0DF91CF911F910F9108958B019C
:101A80006F5F7F4F0E9442AF009759F09983888320
:101A90001B830A832C813D81232B59F7FC01108283
:101AA000E8CF80E0E7CFBF92CF92DF92EF92FF9234
:101AB0000F931F93CF93DF93CDB7DEB7A0970FB6E9
:101AC000F894DEBF0FBECDBF8C01CE0101966C0134
:101AD00080E2F60111928A95E9F76FE1F8018081C1
:101AE0000E9496741092EC088093EB0883EB9BE0C5
:101AF0000E94710A7C01B12C9091EB088091EC0856
:101B0000981761F083EB9BE00E94710A882331F003
:101B1000F601EB0DF11D8083B394EECFFF24F2E0CC
:101B2000EF16F104A9F114F5EA94EF2869F1F80130
:101B300080859185892B39F4878181112FC084E0BC
:101B400090E091878087F80180859185A0960FB6F7
:101B5000F894DEBF0FBECDBFDF91CF911F910F91E3
:101B6000FF90EF90DF90CF90BF900895EEEFEE16CC
:101B7000F10489F083E090E0FFEFEF16F104B9F68D
:101B8000F80191878087D3CFF80111861086CFCFD7
:101B900081E090E0F5CF82E090E0F2CFC6010E94B4
:101BA000FBA6F8016383748385839683CCCF8F92E1
:101BB0009F92AF92BF92CF92DF92EF92FF92CF931C
:101BC000DF9300D0CDB7DEB74B015C011092490620
:101BD00020E13EE040E050E00E94FCACC9014AE058
:101BE00069E476E00E945EA762E474E089E496E02E
:101BF0000E9440B08CE3C82ED12CE12CF12CC50101
:101C0000B401A70196010E94FCACCA01B901A70169
:101C100096010E94FCAC6B018AE0C816D10430F436
:101C20006EE073E089E496E00E9440B04AE0BE01B5
:101C30006F5F7F4FC6010E945EA7BE016F5F7F4F3F
:101C400089E496E00E9440B00F900F900F90DF91D2
:101C5000CF91FF90EF90DF90CF90BF90AF909F908B
:101C60008F9008950F931F93CF93DF9300D01F920F
:101C70001F92CDB7DEB711E08CED99E00E940E0700
:101C8000892BE1F01123E1F08CED99E00E94EC0644
:101C90008F3F980781F38A309105E9F18D309105E6
:101CA00051F3E0912906EB3430F791E09E0F9093C9
:101CB0002906F0E0E557F74F8083DDCF111121C0F1
:101CC00049E050E06DEF72E08BE898E00E945BB075
:101CD000892B59F560E473E08BE898E00E9433A704
:101CE000892B79F060E473E090E080E00E9433A7F4
:101CF00044E150E0BC018BE296E00E9469B0109292
:101D00003F060F900F900F900F900F90DF91CF91A3
:101D10001F910F910895E0912906F0E0E557F74FE4
:101D200010821092290610E0A7CF48E050E067E04B
:101D300073E08BE898E00E945BB0892B11F345E0DB
:101D400050E060E173E08BE898E00E945BB0892B83
:101D5000C1F66FE773E08BE898E00E9433A7892B08
:101D600081F260E473E090E080E00E9433A78E018E
:101D70000F5F1F4F24E0F80111922A95E9F744E024
:101D800050E0BC01C8010E9469B01D82C8010E94D8
:101D9000FFA680932A06B5CF4F925F926F927F92F3
:101DA0008F929F92AF92BF92CF92DF92EF92FF926B
:101DB0008090010690900206A0900306B090040661
:101DC000C0901506D0901606E0901706F090180601
:101DD000C814D904EA04FB0474F48C189D08AE08F6
:101DE000BF080E94A3A6A50194010E94CAACC60E1A
:101DF000D71EE81EF91EC0927B07D0927C07E092A6
:101E00007D07F0927E0740905508509056086090EC
:101E1000570870905808C301B2012AE030E040E052
:101E200050E00E94FCAC49015A017A016901841416
:101E30009504A604B7049CF473016201C818D9087C
:101E4000EA08FB0841F00E94A3A6A70196010E94A0
:101E5000CAAC6B017C01C80CD91CEA1CFB1CC092EB
:101E6000E005D092E105E092E205F092E3051092E0
:101E70007707109278071092790710927A07FF90EF
:101E8000EF90DF90CF90BF90AF909F908F907F901A
:101E90006F905F904F9008954CE251E060ED77E0D5
:101EA00080E090E00C94CD76EF92FF920F931F9319
:101EB000CF93DF936115710541F480E0DF91CF91FD
:101EC0001F910F91FF90EF90089541155105B1F0CA
:101ED0007B01EC010C811D81040F151FB8010E94CC
:101EE0002B0D882351F3288139818C819D81B70185
:101EF000820F931F0E9454B01D830C8381E0DECFBC
:101F00006115710551F0FB0101900020E9F731974F
:101F1000AF01461B570B0C94540F80E00895CF93EC
:101F2000DF93EC0188819981009711F00E94CEA582
:101F3000198218821D821C821B821A82DF91CF9126
:101F40000895EF92FF920F931F93CF93DF93EC01CD
:101F50007B018A01BA010E942B0D81110BC0CE01B9
:101F60000E948F0FCE01DF91CF911F910F91FF90B3
:101F7000EF9008951D830C83B701888199810E9499
:101F800054B0F0CFFB0101900020E9F73197AF0189
:101F9000461B570B0C94A10FFC0180819181009787
:101FA00011F00C94CEA50895FC01118210821382C9
:101FB000128215821482FB0101900020E9F731970B
:101FC000AF01461B570B0C94A10FFB0101900020A1
:101FD000E9F73197AF01461B570BDC01ED91FC91FE
:101FE0000280F381E02D1994CF93DF93EC0189E710
:101FF0009AE00E940E07892B29F089E79AE00E9457
:10200000EC06F5CF209729F0BE0189E79AE00E94FF
:10201000E50F6FEF70E089E79AE00E9494746FEF2C
:1020200070E089E79AE00E9494746FEF70E089E7AE
:102030009AE0DF91CF910C949474EF92FF920F93FA
:102040001F93CF93DF93CDB7DEB760970FB6F894A9
:10205000DEBF0FBECDBF7C018E010F5F1F4F8AE038
:10206000F80111928A95E9F761EF73E0CE010B96C2
:102070000E94D40F4AE0B80189E090E00E9493A743
:10208000F70162817381CE010B960E94800F66E199
:1020900073E0CE010B960E94800FB801CE010B9623
:1020A0000E94800F8B859C850E94F40F61EF73E086
:1020B000CE010B960E94C20F6DE173E0CE010B962C
:1020C0000E94800FF70162817381CE010B960E94FE
:1020D000800F8B859C850E94F40F0E946074182FDE
:1020E000CE010B960E94CC0F812F60960FB6F8940C
:1020F000DEBF0FBECDBFDF91CF911F910F91FF903B
:10210000EF9008950F931F93CF93DF93CDB7DEB772
:102110002F970FB6F894DEBF0FBECDBF8E010F5FB5
:102120001F4F2FE0F80111922A95E9F71F924F9364
:102130001F926F93FC0181811F928F9382E293E043
:102140009F938F931F930F930E9478B0C8010E94B2
:10215000F40F0FB6F894DEBF0FBECDBF81E02F960F
:102160000FB6F894DEBF0FBECDBFDF91CF911F91A8
:102170000F9108958F929F92AF92BF92CF92DF926C
:10218000EF92FF920F931F93CF93DF935C014B016C
:10219000D42FC52FC901B80120E030E048EC52E44B
:1021A0000E94F3AB6B017C01950181EFA8168AE0D8
:1021B000B80610F020EF3AE059012036394020F4FB
:1021C00050E6A52E59E0B52E840185E8881683E0F7
:1021D000980610F004E813E00E3E82E0180710F4B1
:1021E0000EEE12E02D2F3C2F273282E0380710F040
:1021F00026E232E0E9012A3F310510F4CAEFD0E0CF
:1022000020E030E844E555E4C701B6010E948DABFB
:1022100087FD89C020E030E447E655E4C701B601F8
:102220000E9442AE18163CF4C12C40E4D42E47E67E
:10223000E42E45E4F42E950150E040E0205639406C
:1022400041095109A0E6B0E00E94E9AC20E931E083
:1022500040E050E00E94CAACBA01A901405D5F4F66
:102260006F4F7F4F60E085E292E10E94821030E084
:1022700020E0A90198012E5E324041095109A8E4ED
:10228000B0E00E94E9AC26E930E040E050E00E9476
:10229000CAAC422F61E085E292E10E9482109E0169
:1022A00050E040E02A5F310941095109A0E6B0E061
:1022B0000E94E9AC2CE2822E99249394A12CB12C9B
:1022C000A50194010E94CAAC422F60E089E292E12C
:1022D0000E948210C701B6010E940CAE9B01AC01A6
:1022E00028543D4041095109A0E3B0E00E94E9AC07
:1022F000A50194010E94CAACBA01A901485B5F4FD5
:102300006F4F7F4F61E089E292E1DF91CF911F91A2
:102310000F91FF90EF90DF90CF90BF90AF909F9084
:102320008F900C948210C12C30E8D32E34E5E32E2C
:1023300035E4F32E80CF4F925F926F927F928F920F
:102340009F92AF92BF92CF92DF92EF92FF920F9344
:102350001F93CF93DF93CDB7DEB7A4970FB6F89452
:10236000DEBF0FBECDBF2B013A014901A98ABA8A4F
:10237000CB8ADC8ABC0190E080E00E9492AB6D8346
:102380007E838F839887B20190E080E00E9492ABB9
:102390009B01AC016D817E818F8198850E942DAD5E
:1023A00020E030E040EE50E40E949AAD6D8B7E8BD1
:1023B0008F8B988FB30190E080E00E9492AB698789
:1023C0007A878B879C87B40190E080E00E9492AB73
:1023D0009B01AC0169857A858B859C850E942DAD1A
:1023E00020E030E040EE50E40E949AAD698F7A8F91
:1023F0008B8F9C8FB80190E080E00E9492AB6D873C
:102400007E878F87988BB70190E080E00E9492AB27
:102410009B01AC016D857E858F8598890E942DADCD
:1024200020E030E040EE50E40E949AAD6D8F7E8F48
:102430008F8F98A328AD39AD4AAD5BADC601B5010C
:102440000E942DAD20E030E040EE50E40E949AADB5
:1024500069A37AA38BA39CA301E010E0B801012E2D
:10246000000C880B990B0E9494AB4B015C012D89E9
:102470003E894F89588D0E94F3AB9B01AC016D8161
:102480007E818F8198850E942DAD6B017C01298D05
:102490003A8D4B8D5C8DC501B4010E94F3AB9B015D
:1024A000AC0169857A858B859C850E942DAD2B01B9
:1024B0003C012D8D3E8D4F8D58A1C501B4010E9468
:1024C000F3AB9B01AC016D857E858F8598890E9459
:1024D0002DAD69837A838B839C8329A13AA14BA17B
:1024E0005CA1C501B4010E94F3AB9B01AC016989F9
:1024F0007A898B899C890E942DAD20E030E048ECE0
:1025000052E40E94F3AB4B015C0120E030E046E175
:1025100055E4C701B6010E948DAB87FDF6C020E0EF
:1025200030E04FE255E4C701B6010E9442AE1816F2
:1025300034F4C12CD12C5FE2E52E55E4F52E20E0D9
:1025400030E84BE354E4C301B2010E948DAB87FD38
:10255000E3C020E030E041E654E4C301B2010E9450
:1025600042AE181634F4412C512C31E6632E34E47B
:10257000732E20E030E04AE753E469817A818B8151
:102580009C810E948DAB87FDCFC020E030E849E000
:1025900054E469817A818B819C810E9442AE181635
:1025A00044F480E090E8A9E0B4E489839A83AB83A3
:1025B000BC8320E030E844E555E4C501B4010E9445
:1025C0008DAB87FDB6C020E030E447E655E4C50199
:1025D000B4010E9442AE18163CF4812C90E4992E6E
:1025E00097E6A92E95E4B92EC701B6010E940CAE5C
:1025F0009B01AC012056394041095109A0E6B0E0E9
:102600000E94E9AC20E931E040E050E00E94CAAC11
:10261000BA01A901405D5F4F6F4F7F4F60E081E8D5
:1026200091E10E948210C301B2010E940CAE9B0195
:10263000AC012E5E324041095109A8E4B0E00E948D
:10264000E9AC26E930E040E050E00E94CAAC422FFD
:1026500061E081E891E10E94821069817A818B8139
:102660009C810E940CAE9B01AC012A5F310941099B
:102670005109A0E6B0E00E94E9AC2CE231E040E074
:1026800050E00E94CAAC422F60E085E891E10E94D0
:102690008210C501B4010E940CAE9B01AC0128540C
:1026A0003D4041095109A0E3B0E00E94E9AC2CE2B1
:1026B00031E040E050E00E94CAACBA01A901485B99
:1026C0005F4F6F4F7F4F61E085E891E10E9482107C
:1026D0000F5F1F4F0830110509F0C0CEA4960FB64A
:1026E000F894DEBF0FBECDBFDF91CF911F910F9148
:1026F000FF90EF90DF90CF90BF90AF909F908F9022
:102700007F906F905F904F900895C12CD12C46E13F
:10271000E42E45E4F42E13CF412C20E8522E2BE377
:10272000622E24E4722E25CF80E090E0AAE7B3E485
:102730003CCF812C80E8982E84E5A82E85E4B82E25
:1027400053CF8F929F92AF92BF92EF92FF920F93CF
:102750001F93CF93DF93CDB7DEB760970FB6F89492
:10276000DEBF0FBECDBF7C014A018E010F5F1F4F40
:102770008AE0F80111928A95E9F761EF73E0CE01E2
:102780000B960E94D40F4AE0B801C4010E9493A79F
:10279000F70162817381CE010B960E94800F6FE278
:1027A00073E0CE010B960E94800FB801CE010B960C
:1027B0000E94800F8B859C850E94F40F0E9460749C
:1027C000182FCE010B960E94CC0F812F60960FB66A
:1027D000F894DEBF0FBECDBFDF91CF911F910F9157
:1027E000FF90EF90BF90AF909F908F900895809151
:1027F000BE078D3021F54091B4075091B50770E0C8
:1028000060E085EA90E10E94A1134091B6075091E3
:10281000B70770E060E08DE890E10E94A11360913D
:10282000B8077091B9078091BA079091BB070E94D1
:1028300013AEAB01BC0185E790E10C94A1130895A0
:102840008091BE07811116C020E030E048EC52E4D0
:102850006091B8077091B9078091BA079091BB0752
:102860000E94F3AB0E9413AEAB01BC018DE696E172
:102870000C94A11308958091BE0781110AC0409164
:10288000B6075091B70770E060E089E796E10C94D5
:10289000A11308958091BE0781110AC04091B40729
:1028A0005091B50770E060E085E896E10C94A113C3
:1028B00008958091BE07811109C04091B30750E08F
:1028C00070E060E089E397E10C94A1130895809192
:1028D000BE07811109C04091B20750E070E060E08E
:1028E00085E497E10C94A11308958091BE078111AE
:1028F00009C04091B10750E070E060E081E597E1E8
:102900000C94A11308958091BE07811109C04091D4
:10291000B00750E070E060E08DE897E10C94A113FF
:1029200008958091BE07811109C04091AF0750E022
:1029300070E060E089E997E10C94A113089580911B
:10294000BE07811109C04091AE0750E070E060E021
:1029500085EA97E10C94A11308958091BE07811137
:1029600009C04091AD0750E070E060E081EB97E175
:102970000C94A11308958F929F92AF92BF92EF9201
:10298000FF920F931F93CF93DF93CDB7DEB760977E
:102990000FB6F894DEBF0FBECDBF7C014A018E0199
:1029A0000F5F1F4F8AE0F80111928A95E9F761EFF6
:1029B00073E0CE010B960E94D40F4AE0B801C40127
:1029C0000E9493A7F70162817381CE010B960E944A
:1029D000800F65E373E0CE010B960E94800FB80173
:1029E000CE010B960E94800F8B859C850E94F40F70
:1029F00061EF73E0CE010B960E94C20F6DE173E0B0
:102A0000CE010B960E94800FF70162817381CE0187
:102A10000B960E94800F8B859C850E94F40F0E946C
:102A20006074182FCE010B960E94CC0F812F6096F8
:102A30000FB6F894DEBF0FBECDBFDF91CF911F91CF
:102A40000F91FF90EF90BF90AF909F908F9008955F
:102A5000EF92FF920F931F93CF93DF9300D000D09C
:102A6000CDB7DEB77C018B0161EF73E0CE0101963B
:102A70000E94D40FF70162817381CE0101960E94FA
:102A8000800F6BE373E0CE0101960E94800FB801C6
:102A9000CE0101960E94800F60E473E0CE010196A2
:102AA0000E94800F89819A810E94F40F0E946074B5
:102AB000182FCE0101960E94CC0F812F26960FB6BB
:102AC000F894DEBF0FBECDBFDF91CF911F910F9164
:102AD000FF90EF900895AF92BF92CF92DF92EF9266
:102AE000FF920F931F93CF93DF93CDB7DEB72C9751
:102AF0000FB6F894DEBF0FBECDBFE982FA820B831A
:102B00001C832D833E834F83588769877A878B8701
:102B10009C870E94230DA114B10439F0A50170E037
:102B200060E0CE0101960E94BB144BE450E0B60178
:102B300080ED97E00E9424A710921B0860ED77E0DB
:102B4000CE0101960E9428152C960FB6F894DEBF90
:102B50000FBECDBFDF91CF911F910F91FF90EF90EE
:102B6000DF90CF90BF90AF900895AF92BF92CF9279
:102B7000DF92EF92FF920F931F93CF93DF9300D0DA
:102B80001F92CDB7DEB790E080E00E94B4AC89839D
:102B900081E090E00E94B4AC8A8382E090E00E94E1
:102BA000B4AC8B8383E090E00E94B4AC8C838981C9
:102BB0009A81AB81BC81853B9105AB46B14B09F055
:102BC00047C08091E805811143C05EE1E52E58E0E1
:102BD000F52E04E010E0C8010E94B4ACF701819327
:102BE0007F010F5F1F4F01371105A9F733E0A32EB7
:102BF00037EBB32E4AEFC42E44E0D42EE0900518F4
:102C0000F0900618009107181091081820910918E3
:102C100030910A1840910B1850910C1860910D18C2
:102C200070910E1880910F18909110180E946B15DA
:102C30000F900F900F900F90DF91CF911F910F91F8
:102C4000FF90EF90DF90CF90BF90AF900C942C0B43
:102C500091E090931E0890931F0810922008909383
:102C6000210882E08093220880932308809324081F
:102C7000809325088093260880932708809328084E
:102C800084E08093290890932A0840E050E06CEC9F
:102C900071E440932B0850932C0860932D08709397
:102CA0002E0840E050E064ED71E440932F0850930B
:102CB0003008609331087093320882E280933308C1
:102CC000909335081092340880ED96EBA0E0B0E0C8
:102CD0008093360890933708A0933808B09339084A
:102CE00080E39BE0A1E0B0E080933A0890933B083A
:102CF000A0933C08B0933D0880EA9BEBADE0B0E0C8
:102D000080933E0890933F08A0934008B0934108F9
:102D100088E28093420884E68093460890E5909389
:102D2000440896E99093450892E3909343089CE801
:102D30009093470828EF3AE23093490820934808D7
:102D400028EC32E330934B0820934A0828E93AE311
:102D500030934D0820934C0890EC90934E089BEBD9
:102D600090934F089FE9909350089BE490935108EB
:102D70009CE390935208909353088093540840E446
:102D800057E76BE170E04093550850935608609305
:102D900057087093580895E09093590893E29093E0
:102DA0005A0880935B0880935C0890935D081092AA
:102DB0005E0880E29CE19093600880935F0888EA57
:102DC00093E9A0E0B0E08093610890936208A0933B
:102DD0006308B093640888E490E2A1E0B0E08093D7
:102DE000650890936608A0936708B093680880E729
:102DF00093E4A1E0B0E08093690890936A08A093FF
:102E00006B08B0936C0880EA9CE8A0E0B0E0809387
:102E10006D0890936E08A0936F08B093700840E01F
:102E200050E064EC71E44093710850937208609331
:102E300073087093740840E050E06CED71E44093C7
:102E4000750850937608609377087093780820E3AC
:102E500035E730937A082093790828EF3EE83093DD
:102E60007C0820937B0822E033E030937E08209397
:102E70007D0822E533E03093800820937F0880931B
:102E8000820890938308A0938408B093850880E417
:102E900099E1A1E0B0E08093860890938708A09321
:102EA0008808B093890810928A080E9472772DEBE7
:102EB000E22E22E0F22E10E000E0F701D1907F0137
:102EC000C8010E94B4ACD81621F06D2DC8010E9433
:102ED000BCAC0F5F1F4F0430110579F784E4A82EB6
:102EE0008DEEB82E9DECC92E94E0D92E87CE609140
:102EF0007F077091800780918107909182070E94DF
:102F0000D70D69E476E089EE95E10C94281560917F
:102F10007B0770917C0780917D0790917E070E94CE
:102F2000D70D69E476E085E197E10E94281560916C
:102F3000E0057091E1058091E2059091E30528EEAE
:102F400033E040E050E00E94FCACCA01B9010E94AD
:102F5000D70D69E476E089E097E10C94281561EFDC
:102F600073E085E390E10E94281561EF73E089E248
:102F700090E10E94281561EF73E08DE190E10E94DD
:102F8000281561EF73E081E190E10E94281561EF5F
:102F900073E085E090E10C9428158F929F92AF9298
:102FA000BF92EF92FF920F931F93CF93DF93CDB712
:102FB000DEB760970FB6F894DEBF0FBECDBF7C01C1
:102FC0004A018E010F5F1F4F8AE0F80111928A9526
:102FD000E9F761EF73E0CE010B960E94D40F4AE04F
:102FE000B801C4010E9493A7F70162817381CE01E9
:102FF0000B960E94800F6FE273E0CE010B960E9449
:10300000800FB801CE010B960E94800F8B859C85A6
:103010000E94F40F0E946074182FCE010B960E943C
:10302000CC0F812F60960FB6F894DEBF0FBECDBFD8
:10303000DF91CF911F910F91FF90EF90BF90AF90D4
:103040009F908F9008958F929F92AF92BF92EF9230
:10305000FF920F931F93CF93DF93CDB7DEB76097A7
:103060000FB6F894DEBF0FBECDBF7C014A018E01C2
:103070000F5F1F4F8AE0F80111928A95E9F761EF1F
:1030800073E0CE010B960E94D40F4AE0B801C40150
:103090000E9493A7F70162817381CE010B960E9473
:1030A000800F62E473E0CE010B960E94800FB8019E
:1030B000CE010B960E94800F8B859C850E94F40F99
:1030C0000E946074182FCE010B960E94CC0F812FA6
:1030D00060960FB6F894DEBF0FBECDBFDF91CF91E3
:1030E0001F910F91FF90EF90BF90AF909F908F90A6
:1030F00008958EE30E9486089C012F5A3240283B97
:103100003105D8F5B0E0A0E09C01AD012F5A324066
:1031100041095109A6E0B0E00E94E9AC2AE430E0A0
:1031200040E050E00E94CAAC4DE150E060E070E049
:103130002630310530F54EE150E060E070E025309A
:103140003105F9F04FE150E060E070E024303105E6
:10315000C1F040E250E060E070E02330310589F0DA
:1031600041E250E060E070E02230310551F042E28F
:1031700050E060E070E0232B21F443E250E060E097
:1031800070E08DED95E10C9423188091BE078111BC
:1031900029C04091AC0750E070E060E08DE597E118
:1031A0000E94A113909153068091D405992371F048
:1031B000811118C049E050E060E070E089E697E1D5
:1031C0000E94231881E08093D4050895882351F04C
:1031D0004AE050E060E070E089E697E10E94231841
:1031E0001092D40508950F931F93CF93DF9300D0CF
:1031F00000D0CDB7DEB7FC010281138101151105A6
:1032000011F168E473E0CE0101960E94D40FB80179
:10321000CE0101960E94800F89819A810E94F40F4D
:103220000E946074182FCE0101960E94CC0F812F4E
:1032300026960FB6F894DEBF0FBECDBFDF91CF91BB
:103240001F910F91089510E0F2CF8DE892E10E9456
:10325000F31888E08093BE07089585ED9FE00E94F3
:10326000F3188FE08093BE070895CF93DF9389E82A
:1032700093E10E94F31884E08093BE07C5EAD7E08B
:10328000488150E070E060E08DE793E10E94A11377
:10329000498150E070E060E081E793E10E94A11372
:1032A0004091480650E070E060E085E693E10E94BE
:1032B000A1134091470650E070E060E089E593E19A
:1032C0000E94A1134091450650914606405D57402B
:1032D00070E060E08DE493E1DF91CF910C94A11355
:1032E00089E992E10E94F31887E08093BE07089570
:1032F0008F929F92AF92BF92EF92FF920F931F9384
:10330000CF93DF93CDB7DEB760970FB6F894DEBFEB
:103310000FBECDBF7C014A018E010F5F1F4F8AE0B7
:10332000F80111928A95E9F761EF73E0CE010B96EF
:103330000E94D40F4AE0B801C4010E9493A7F7018C
:1033400062817381CE010B960E94800F62E473E06C
:10335000CE010B960E94800FB801CE010B960E9401
:10336000800F8B859C850E94F40F61EF73E0CE0186
:103370000B960E94C20F6DE173E0CE010B960E9486
:10338000800FF70162817381CE010B960E94800F3E
:103390008B859C850E94F40F0E946074182FCE01CB
:1033A0000B960E94CC0F812F60960FB6F894DEBF6B
:1033B0000FBECDBFDF91CF911F910F91FF90EF9086
:1033C000BF90AF909F908F9008958091010241E14E
:1033D00050E060E070E0811104C040E150E060E046
:1033E00070E081ED95E10C9478198091810846E0B8
:1033F00050E060E070E0811104C047E050E060E020
:1034000070E085E79FE00C94781980912A0846E0E7
:1034100050E060E070E0811104C047E050E060E0FF
:1034200070E089E69FE00C947819CF92DF92EF92DA
:10343000FF9289EC9FE00E94F31880E18093BE0721
:1034400020E030E040E251E4609171087091720830
:1034500080917308909174080E94F3AB0E9413AEA0
:10346000AB01BC0181EB9FE00E94A11320E030E0A2
:1034700040E251E460917508709176088091770878
:10348000909178080E94F3AB0E9413AEAB01BC018F
:103490008DEB9FE00E94A1138091790890917A08AA
:1034A00068EE73E00E9463AEAB0170E060E085EA15
:1034B0009FE00E94A11380917B0890917C086CE3AF
:1034C00070E00E9463AEAB0170E060E089E99FE0CC
:1034D0000E94A11340917D0850917E0870E060E049
:1034E00081E89FE00E94A11340917F0850918008DD
:1034F00070E060E08DE89FE00E94A1130E94051A31
:103500000E94F51960918208709183088091840867
:103510009091850820E1C22E2EE0D22EE12CF12CD4
:10352000A70196010E94FCACBA01A9018DE59FE0BC
:103530000E94A11360918608709187088091880885
:1035400090918908A70196010E94FCACBA01A901DB
:1035500081E59FE0FF90EF90DF90CF900C94A11356
:103560008091BE07811110C08091DC0546E050E0DB
:1035700060E070E0811104C047E050E060E070E07E
:103580008DE297E10C94781908958091290846E01E
:1035900050E060E070E0813061F047E050E060E0D2
:1035A00070E0882331F0843041F447E750E060E078
:1035B00070E08DE096E10C947819089580912808C8
:1035C00046E050E060E070E0813061F047E050E0BC
:1035D00060E070E0882331F0823041F44DE050E04B
:1035E00060E070E089E196E10C947819089580918B
:1035F000270846E050E060E070E0813061F047E08D
:1036000050E060E070E0882331F0823041F44DE01A
:1036100050E060E070E085E296E10C94781908953E
:103620008091260846E050E060E070E0813061F073
:1036300047E050E060E070E0882331F0823041F4F0
:103640004DE050E060E070E081E396E10C94781981
:1036500008958091250846E050E060E070E08130F8
:1036600061F047E050E060E070E0882331F08230A4
:1036700041F448E050E060E070E08DE396E10C94A6
:10368000781908958091240846E050E060E070E0E9
:10369000813061F047E050E060E070E0882331F075
:1036A000823041F448E050E060E070E089E496E167
:1036B0000C94781908958091230846E050E060E06A
:1036C00070E0813061F047E050E060E070E0882316
:1036D00031F0823041F448E050E060E070E085E590
:1036E00096E10C94781908958091220846E050E004
:1036F00060E070E0813061F047E050E060E070E051
:10370000882331F0823041F448E050E060E070E01E
:1037100081E696E10C9478190895AF92BF92CF920A
:10372000DF92EF92FF920F931F938091BE0781115A
:1037300058C080911E08882391F046E050E060E078
:1037400070E081E297E10E9478191F910F91FF903C
:10375000EF90DF90CF90BF90AF900C94871747E029
:1037600050E060E070E081E297E10E947819B12CAE
:10377000A12C88EAC82E87E0D82EE0901517F0908B
:1037800016170091171710911817209119173091DB
:103790001A1740911B1750911C1760911D177091BB
:1037A0001E1780911F17909120170E946B15E090B3
:1037B0000917F0900A1700910B1710910C17209120
:1037C0000D1730910E1740910F17509110176091FF
:1037D00011177091121780911317909114170E946E
:1037E0006B151F910F91FF90EF90DF90CF90BF90DE
:1037F000AF9008958091A307882341F047E050E0FF
:1038000060E070E085EB96E10C94781980912108D6
:103810004FE050E060E070E08330A1F3813029F4A4
:1038200046E050E060E070E0EDCF882339F3089582
:10383000AF92BF92CF92DF92EF92FF920F931F93BE
:1038400080912008882301F146E050E060E070E0BC
:103850008DEC96E10E94781960913A0870913B08CE
:1038600080913C0890913D080E94D70D69E476E074
:1038700081EC96E11F910F91FF90EF90DF90CF9038
:10388000BF90AF900C94281547E050E060E070E0E6
:103890008DEC96E10E947819B12CA12C88EAC82EF3
:1038A00087E0D82EE090C116F090C2160091C316A2
:1038B0001091C4162091C5163091C6164091C716B6
:1038C0005091C8166091C9167091CA168091CB1696
:1038D0009091CC160E946B151F910F91FF90EF9065
:1038E000DF90CF90BF90AF900895AF92BF92CF92EC
:1038F000DF92EF92FF920F931F9380911F0888230E
:1039000001F146E050E060E070E085EE96E10E9453
:103910007819609136087091370880913808909135
:1039200039080E94D70D69E476E089ED96E11F9190
:103930000F91FF90EF90DF90CF90BF90AF900C94DD
:10394000281547E050E060E070E085EE96E10E94C7
:103950007819B12CA12C88EAC82E87E0D82EE090E7
:10396000D916F090DA160091DB161091DC16209132
:10397000DD163091DE164091DF165091E016609111
:10398000E1167091E2168091E3169091E4160E9480
:103990006B151F910F91FF90EF90DF90CF90BF902C
:1039A000AF9008958091DD0546E050E060E070E062
:1039B000811104C047E050E060E070E081EF96E1E3
:1039C0000C9478190F931F93CF93DF938C01D0E061
:1039D000C0E06115710519F00E94E50FEC016FEE72
:1039E00073E0C8010E94E50F8C0F9D1FDF91CF91FE
:1039F0001F910F9108951F920F920FB60F921124ED
:103A00000BB60F922F933F934F935F936F937F93D8
:103A10008F939F93AF93BF93EF93FF938FE399E0BF
:103A20000E944207FF91EF91BF91AF919F918F91BB
:103A30007F916F915F914F913F912F910F900BBEAE
:103A40000F900FBE0F901F9018951F920F920FB6F8
:103A50000F9211240BB60F922F933F934F935F93C6
:103A60006F937F938F939F93AF93BF93EF93FF9346
:103A70008FE399E00E94C406FF91EF91BF91AF914F
:103A80009F918F917F916F915F914F913F912F9176
:103A90000F900BBE0F900FBE0F901F9018951F92A6
:103AA0000F920FB60F9211240BB60F922F933F93E4
:103AB0004F935F936F937F938F939F93AF93BF9336
:103AC000EF93FF938CED99E00E944207FF91EF91F5
:103AD000BF91AF919F918F917F916F915F914F9126
:103AE0003F912F910F900BBE0F900FBE0F901F9024
:103AF00018951F920F920FB60F9211240BB60F92CA
:103B00002F933F934F935F936F937F938F939F93E5
:103B1000AF93BF93EF93FF938CED99E00E94C4069F
:103B2000FF91EF91BF91AF919F918F917F916F9195
:103B30005F914F913F912F910F900BBE0F900FBE51
:103B40000F901F9018951F920F920FB60F9211248D
:103B50000BB60F922F933F934F935F936F937F9387
:103B60008F939F93AF93BF93EF93FF9389E79AE06F
:103B70000E944207FF91EF91BF91AF919F918F916A
:103B80007F916F915F914F913F912F910F900BBE5D
:103B90000F900FBE0F901F9018951F920F920FB6A7
:103BA0000F9211240BB60F922F933F934F935F9375
:103BB0006F937F938F939F93AF93BF93EF93FF93F5
:103BC00089E79AE00E94C406FF91EF91BF91AF91FF
:103BD0009F918F917F916F915F914F913F912F9125
:103BE0000F900BBE0F900FBE0F901F9018951F9255
:103BF0000F920FB60F9211240BB60F922F933F9393
:103C00004F935F936F937F938F939F93AF93BF93E4
:103C1000EF93FF9386E19BE00E944207FF91EF91B3
:103C2000BF91AF919F918F917F916F915F914F91D4
:103C30003F912F910F900BBE0F900FBE0F901F90D2
:103C400018951F920F920FB60F9211240BB60F9278
:103C50002F933F934F935F936F937F938F939F9394
:103C6000AF93BF93EF93FF9386E19BE00E94C4065E
:103C7000FF91EF91BF91AF919F918F917F916F9144
:103C80005F914F913F912F910F900BBE0F900FBE00
:103C90000F901F9018951F93CF93DF93282F30E03C
:103CA000F901EF57F94F8491F901E151F44FD491A3
:103CB000F901E755F44FC491CC23A9F0162F8111D7
:103CC0000E94F607EC2FF0E0EE0FFF1FEB58F44FC9
:103CD000A591B4918FB7F894EC91111108C0D095CB
:103CE000DE23DC938FBFDF91CF911F910895DE2BF0
:103CF000F8CFCF92DF92EF92FF920F931F93CF9363
:103D0000DF936B017A01EC01C553D94F28813CE068
:103D1000389F8001399F100D112427FF24C0FB011B
:103D20001182108288818F5F888388819801280F93
:103D3000311D87FD3A95C9012091840CF6012817A1
:103D4000190629F024F088818C300CF43CC0808165
:103D50009181049680349C4908F475C0F6018081F5
:103D60009181049672C088819801280F311D87FDCA
:103D70003A95C9012091840C2817190699F294F2FA
:103D80008881A801480F511D87FD5A95FA01EE0F51
:103D9000FF1FE40FF51FEC50F44F808186FFC2CF68
:103DA0008881F801E80FF11D87FDFA95CF01EE0F2C
:103DB000FF1FE80FF91FEC50F44F808160E08F7314
:103DC0000E944B1EAFCF808191812881A801420FB4
:103DD000511D27FD5A959A01FA01EE0FFF1FE20FC0
:103DE000F31FEC50F44F21813281820F931FF701B2
:103DF0009183808388819801280F311D87FD3A9532
:103E0000F901EE0FFF1FE20FF31FEC50F44F80811A
:103E100086FF20C08881080F111D87FD1A95F801C3
:103E2000EE0FFF1FE00FF11FEC50F44F808161E0B7
:103E30008F73DF91CF911F910F91FF90EF90DF90E3
:103E4000CF900C944B1E80E49CE9F7019183808312
:103E50008FEF8883DF91CF911F910F91FF90EF90AB
:103E6000DF90CF9008951092390981E0809318096E
:103E70001092130961E084E10E944B1E61E085E12C
:103E80000E944B1EE9EBF0E080818E7F8083808171
:103E90008D7F808388E48093B80085E48093BC00A4
:103EA00008950F931F9380912908811106C060E047
:103EB0008CE11F910F910C944B1E813011F461E045
:103EC000F7CF843009F041C08091690890916A0869
:103ED000A0916B08B0916C0840916D0850916E08EC
:103EE00060916F087091700884179507A607B7074F
:103EF00098F400917F0710918007209181073091FD
:103F00008207081719072A073B0788F204171507C5
:103F10002607370760F6D3CF481759076A077B078C
:103F2000A0F400917F0710918007209181073091C4
:103F30008207041715072607370708F2081719071D
:103F40002A073B0708F0BBCFB2CF1F910F9108950E
:103F5000CF93DF9390E0FC01E151F44F249187551A
:103F6000944FFC0184918823C9F090E0880F991F39
:103F7000FC01E55AF44FA591B491FC01EB58F44FC4
:103F8000C591D49161110DC09FB7F8948C91209583
:103F900082238C938881282328839FBFDF91CF9130
:103FA0000895623051F49FB7F8943C91822F809528
:103FB00083238C93E8812E2BEFCF8FB7F894EC916D
:103FC0002E2B2C938FBFEACF1F93CF93DF93182F05
:103FD000EB0161E00E94A81F209739F460E0812F77
:103FE000DF91CF911F910C944B1ECF3FD10511F45F
:103FF00061E0F5CFE12FF0E0EF57F94FE491E150A8
:10400000E23108F0B3C0F0E08827E65FFF4D8F4F44
:104010000C948BAE1C202420292033203D20B62078
:1040200047204F20572061206B20752084208E2050
:10403000B6209820A220AC2084B5806884BDC7BD7E
:10404000DF91CF911F91089584B5806284BDC8BD72
:10405000F7CF80918000806880938000D0938900A2
:10406000C0938800EDCF80918000806280938000B3
:10407000D0938B00C0938A00E3CF8091800088604A
:1040800080938000D0938D00C0938C00D9CF809115
:10409000B00080688093B000C093B300D1CF80910E
:1040A000B00080628093B000C093B400C9CF80910B
:1040B0009000806880939000D0939900C0939800FE
:1040C000BFCF80919000806280939000D0939B003E
:1040D000C0939A00B5CF8091900088608093900043
:1040E000D0939D00C0939C00ABCF8091A0008068CE
:1040F0008093A0008091A0008F7B8093A000D0933C
:10410000A900C093A8009CCF8091A00080628093FA
:10411000A000D093AB00C093AA0092CF8091A000E2
:1041200088608093A000D093AD00C093AC0088CF8E
:1041300080912001806880932001D0932901C09351
:1041400028017ECF80912001806280932001D0934E
:104150002B01C0932A0174CF809120018860809345
:104160002001D0932D01C0932C016ACFC038D10516
:104170000CF03ECF33CF2F923F924F925F926F92CF
:104180007F928F929F92AF92BF92CF92DF92EF92E7
:10419000FF920F931F93CF93DF9300D01F92CDB761
:1041A000DEB702E218E085EA97E09C838B83A9EBF7
:1041B000B2E0BA83A983312C212CF80181918F01BF
:1041C000811105C0AB81BC8118961C9208C081305A
:1041D00009F041C080ADAB81BC8118968C93E98118
:1041E000FA81F190FA83E983AB81BC8118966C91D6
:1041F00070E090E080E00E9494AB23E333E343E27D
:1042000050E40E94F3AB0E940CAE8F2D0E94E41F7D
:10421000BFEF2B1A3B0AEB81FC813196FC83EB83C9
:10422000F4E02F16310449F60F900F900F900F9085
:10423000DF91CF911F910F91FF90EF90DF90CF9082
:10424000BF90AF909F908F907F906F905F904F90B6
:104250003F902F900895823011F6C101880F991F69
:10426000880F991FFC01E75EF94F80809180A28042
:10427000B38040917F0750918007609181077091D2
:104280008207481559056A057B0520F1FC01E75FA7
:10429000F94FC080D180E280F3804C155D056E053A
:1042A0007F05C0F4F801A0AD9A01AB0128193909C6
:1042B0004A095B09B0E00E94E9ACA7019601281900
:1042C00039094A095B090E94CAACAB81BC811896C6
:1042D0002C9385CFFC01E750FA4FC080D180E2805B
:1042E000F3804C155D056E057F0570F1FC01E7510B
:1042F000FA4F80809180A280B380481559056A05E5
:104300007B0510F5F80140AC512C712C612CD701C4
:10431000C601841B950BA60BB70B9C01AD01C30115
:10432000B2010E9447AEA50194012C193D094E0926
:104330005F090E94CAAC420E531E641E751EAB81FB
:10434000BC8118964C924BCF875F994FFC018081BE
:104350009181A281B381481759076A077B0708F446
:1043600031CF4C155D056E057F0508F02BCFD801C8
:10437000D8968C91EB81FC81808731CF1F93CF93AE
:10438000DF93EC01162F8881803308F04EC061E086
:10439000812F0E94A81F8881282F30E0F901EE0F9D
:1043A000FF1FE20FF31FEC50F44F1F736081607C1E
:1043B000612B608319821A822CE0622F0E9457AE13
:1043C000829FB001112430E020E0AB01420F531F67
:1043D000FA01EE0FFF1FE40FF51FEC50F44F908130
:1043E00096FD16C02F5F3F4F2C30310571F781309D
:1043F00009F51092800082E0809381001092850080
:1044000010928400B19A80916F00826080936F0057
:10441000E8818E2F90E0FC01EE0FFF1FE80FF91FDF
:10442000EC50F44F8081806480838881DF91CF914C
:104430001F910895823061F4109290008093910052
:10444000109295001092940088BB80937100E0CF89
:10445000833069F41092A00082E08093A100109252
:10446000A5001092A40089BB80937200D1CF811166
:10447000CFCF1092200182E080932101109225017C
:10448000109224018ABB80937300C2CF3FB7F89487
:104490008091D6069091D706A091D806B091D90602
:1044A00026B5A89B05C02F3F19F00196A11DB11D8F
:1044B0003FBFBA2FA92F982F8827BC01CD01620FCB
:1044C000711D811D911D42E0660F771F881F991F86
:1044D0004A95D1F708958F929F92AF92BF92CF9253
:1044E000DF92EF92FF926B017C010E9446224B010A
:1044F0005C01C114D104E104F104B9F00E94462228
:10450000681979098A099B09683E734081059105FC
:1045100080F321E0C21AD108E108F10888EE880E84
:1045200083E0981EA11CB11CE4CFFF90EF90DF90B8
:10453000CF90BF90AF909F908F900895CF93C82F4A
:1045400060E00E944B1E64E670E080E090E00E9414
:104550006B2261E08C2FCF910C944B1EBF92CF92B7
:10456000DF92EF92FF920F931F93CF93DF9380918F
:104570002A08882309F470C080917F0790918007F2
:10458000A0918107B09182074091820850918308E1
:10459000609184087091850884179507A607B7076E
:1045A00008F45AC0409186085091870860918808A5
:1045B00070918908481759076A077B0708F44CC0AF
:1045C00080918A02882309F447C0C0E2D3E000E06A
:1045D00010E08CE7E82E99E1B92E6E01F02EB601BD
:1045E00090E080E0611571058105910509F03EC0FC
:1045F00064E070E080E090E00E946B2289E1C80EE8
:10460000D11CF3948DE7F812EACF69968E2D801BAA
:104610008B9DC00DD11D11246AEF70E080E090E009
:104620000E946B220CE7123079F0BE0190E080E02E
:104630006115710581059105F1F464E070E080E099
:1046400090E00E946B226997015069F71F5F01E0BB
:10465000133019F610928A02DF91CF911F910F91BA
:10466000FF90EF90DF90CF90BF90089544E050E02E
:104670000E94CD76C3CF44E050E00E94CD76E3CFD8
:10468000CF93DF93C82FD62F423049F570E084E6F0
:1046900090E00E9477AEC69FA001C79F500D1124E5
:1046A000052E000C660B770B89EC90E10E94CD176C
:1046B000DC130DC064EF71E080E090E00E946B229B
:1046C00040E050E0BA0189EC90E10E94CD1762E32E
:1046D00070E080E090E0DF91CF910C946B2243304A
:1046E00001F570E084E690E00E9477AEC69FA001DD
:1046F000C79F500D1124052E000C660B770B81EA25
:1047000093E10E94CD17DC13E2CF64EF71E080E00B
:1047100090E00E946B2240E050E0BA0181EA93E110
:10472000D4CF443001F570E084E690E00E9477AE8B
:10473000C69FA001C79F500D1124052E000C660BCB
:10474000770B89E493E10E94CD17DC13C0CF64EFAF
:1047500071E080E090E00E946B2240E050E0BA01FE
:1047600089E493E1B2CF453001F570E084E690E052
:104770000E9477AEC69FA001C79F500D1124052E41
:10478000000C660B770B81EF92E10E94CD17DC13D2
:104790009ECF64EF71E080E090E00E946B2240E0E9
:1047A00050E0BA0181EF92E190CF463001F570E020
:1047B00084E690E00E9477AEC69FA001C79F500D8F
:1047C0001124052E000C660B770B81EB92E10E9401
:1047D000CD17DC137CCF64EF71E080E090E00E94A5
:1047E0006B2240E050E0BA0181EB92E16ECF4D3098
:1047F00001F570E084E690E00E9477AEC69FA001CC
:10480000C79F500D1124052E000C660B770B8DE40D
:1048100090E10E94CD17DC135ACF64EF71E080E085
:1048200090E00E946B2240E050E0BA018DE490E1FC
:104830004CCF413009F56D2F70E084E690E00E9486
:1048400077AEC69FA001C79F500D1124052E000C06
:10485000660B770B81E095E10E94CD17DC1337CF13
:1048600064EF71E080E090E00E946B2240E050E055
:10487000BA0181E095E129CF403109F028CFDBCFA3
:104880002FB7F8946091D2067091D3068091D40628
:104890009091D5062FBF0895CF92DF92EF92FF92AD
:1048A0000F931F93CF93DF93CDB7DEB72E970FB63D
:1048B000F894DEBF0FBECDBF8C0161EF73E0CE0177
:1048C00007960E94D40F6EE473E0CE0107960E9413
:1048D000800FF80162817381CE0107960E94800FDC
:1048E0006FE873E0CE0107960E94800F8F81988554
:1048F0000E94F40F61EF73E0CE0101960E94D40F85
:104900000E9440246B017C0110E000E00E944024E2
:104910006C197D098E099F09653671058105910520
:1049200090F489E79AE00E940E07892B09F443C0AE
:1049300089E79AE00E94EC060023B9F18F3F49F520
:104940001F5F133070F30D811E810C34110510F0C0
:104950000BE410E069817A81A80180ED97E00E9464
:1049600069B0CE0101960E94CC0FCE0107960E943D
:10497000CC0FC8012E960FB6F894DEBF0FBECDBF88
:10498000DF91CF911F910F91FF90EF90DF90CF902B
:1049900008958D871E8641E050E0BE01635F7F4F22
:1049A000CE0101960E94540FBCCF01E0803709F47C
:1049B000B8CF00E0B6CF133008F4A8CFC4CF8F92A1
:1049C0009F92AF92BF92CF92DF92EF92FF920F939E
:1049D0001F93CF93DF937C016A018B01D0E0C0E08D
:1049E0000E944024F7016087718782879387C701FF
:1049F0000E94EC0697FF22C00E944024F7018084A9
:104A00009184A284B384681979098A099B098480F6
:104A10009580A680B780681579058A059B0538F3CF
:104A2000CE01DF91CF911F910F91FF90EF90DF901A
:104A3000CF90BF90AF909F908F900895F801819391
:104A40008F012196CC16DD0659F6EACF0F931F93FE
:104A5000CF93DF9300D000D01F921F92CDB7DEB767
:104A60008C01BE016F5F7F4F88E0FB0111928A9538
:104A7000E9F784E690E0A0E0B0E080937D0A9093AF
:104A80007E0AA0937F0AB093800A48E050E089E74D
:104A90009AE00E94DF240897A1F58981813789F582
:104AA0008E818F3F71F58F818F3F59F588858F3FBC
:104AB00041F52D818C8190E0B0E0A0E0DC019927E8
:104AC0008827B22B2A81822B4B8150E0542F442718
:104AD000052E000C660B770B842B952BA62BB72B82
:104AE000F80180839183A283B38381E028960FB677
:104AF000F894DEBF0FBECDBFDF91CF911F910F9114
:104B0000089580E0F3CF0F931F93CF93DF9300D0EE
:104B100000D0CDB7DEB78C0161EF73E0CE01019616
:104B20000E94D40F6EE473E0CE0101960E94800FC4
:104B3000F80162817381CE0101960E94800F63E5C6
:104B400073E0CE0101960E94800F89819A810E94B4
:104B5000F40F84EC97E00E942625182FCE010196D1
:104B60000E94CC0F612F70E090E080E026960FB697
:104B7000F894DEBF0FBECDBFDF91CF911F910F9193
:104B8000089589E69FE00E9483258091C407909153
:104B9000C507A091C607B091C7070797A105B10542
:104BA00059F481E080932A080E94051A80912A080E
:104BB000882329F00C944C0F10922A08F5CF089501
:104BC00085E79FE00E9483258091C4079091C507E7
:104BD000A091C607B091C7070797A105B10529F4B1
:104BE00081E0809381080C94F51910928108FBCF25
:104BF000EF92FF920F931F93CF93DF9300D000D0DB
:104C0000CDB7DEB77C018B016EE473E0CE01019677
:104C10000E94D40FF70162817381CE0101960E9438
:104C2000800F68E573E0CE0101960E94800F8981B4
:104C30009A810E94F40FC8010E942625182FCE01E8
:104C400001960E94CC0F612F70E090E080E02696E4
:104C50000FB6F894DEBF0FBECDBFDF91CF911F918D
:104C60000F91FF90EF90089564EC77E089E895E16B
:104C70000E94F8258091C4079091C507A091C607AE
:104C8000B091C7078B309105A105B10529F481E0EA
:104C900080931F080C94751C0A97A105B105D1F7E4
:104CA00010921F08F7CF64EC77E089E895E10E9445
:104CB000F8258091C4079091C507A091C607B091CF
:104CC000C7078D309105A105B10529F481E08093D6
:104CD00020080C94181C0C97A105B105D1F710926F
:104CE0002008F7CF64EC77E089E895E10E94F82589
:104CF0008091C4079091C507A091C607B091C707DE
:104D00008F309105A105B10581F482E080932208DE
:104D10000E94741B0E94BB204091AD0750E070E0E0
:104D200060E081EB97E10C94A11380319105A1051E
:104D3000B10511F481E0EACF0E97A105B10541F765
:104D400010922208E5CF64EC77E089E895E10E94B3
:104D5000F8258091C4079091C507A091C607B0912E
:104D6000C70782319105A105B10581F482E08093E6
:104D700023080E945B1B0E94BB204091AE0750E0BD
:104D800070E060E085EA97E10C94A113833191050E
:104D9000A105B10511F481E0EACF4197A105B10564
:104DA00041F710922308E5CF64EC77E089E895E1BC
:104DB0000E94F8258091C4079091C507A091C6076D
:104DC000B091C70785319105A105B10581F482E055
:104DD000809324080E94421B0E94BB204091AF0791
:104DE00050E070E060E089E997E10C94A11386310E
:104DF0009105A105B10511F481E0EACF4497A10521
:104E0000B10541F710922408E5CF64EC77E089E81A
:104E100095E10E94F8258091C4079091C507A09163
:104E2000C607B091C70788319105A105B10581F486
:104E300082E0809325080E94291B0E94BB2040919C
:104E4000B00750E070E060E08DE897E10C94A113AA
:104E500089319105A105B10511F481E0EACF4797A9
:104E6000A105B10541F710922508E5CF64EC77E084
:104E700089E895E10E94F8258091C4079091C507C3
:104E8000A091C607B091C70788329105A105B10569
:104E900039F484E0809329080E94C51A0C94511FAC
:104EA00089329105A105B10511F481E0F3CF87970F
:104EB000A105B10589F710922908EECFCF92DF92B4
:104EC000EF92FF920F931F93CF93DF9300D01F9227
:104ED000CDB7DEB764EC77E08DE591E10E94F8256F
:104EE0008EE1E82E88E0F82E04EC17E0F8018081CE
:104EF000F70185AF42E06AE081E00E944023B801FB
:104F000081E591E10E94F825F8018081F70186AFE3
:104F100042E06AE082E00E944023B80185E491E12A
:104F20000E94F825F8018081F70187AF42E06AE02E
:104F300083E00E944023B80189E391E10E94F825B3
:104F4000F801808180935E0842E06AE084E00E947C
:104F50004023B8018DE291E10E94F825BE016F5F08
:104F60007F4F81E291E10E94F8252091C4073091A2
:104F7000C5074091C6075091C707A0E1BEE00E9457
:104F8000E9AC6B017C0129813A814B815C81ACE306
:104F9000B0E00E94E9ACC60ED71EE81EF91EC09212
:104FA0004F06D0925006E0925106F0925206C092FF
:104FB0006108D0926208E0926308F092640842E0CF
:104FC0006AE085E00E944023B80185E191E10E94FA
:104FD000F825BE016F5F7F4F89E091E10E94F825BF
:104FE0002091C4073091C5074091C6075091C7076B
:104FF000A0E1BEE00E94E9AC6B017C0129813A810D
:105000004B815C81ACE3B0E00E94E9ACC60ED71ED8
:10501000E81EF91EC0924F06D0925006E09251064B
:10502000F0925206C0926508D0926608E092670836
:10503000F092680842E06AE086E00E944023B801EE
:105040008DEF90E10E94F825F801208131814CE339
:10505000429FC001439F900D11249093600880935C
:105060005F0842E06AE087E00E944023B80181EFD8
:1050700090E10E94F825BE016F5F7F4F85EE90E1C1
:105080000E94F8252091C4073091C5074091C607BA
:105090005091C707A0E1BEE00E94E9AC6B017C0122
:1050A00029813A814B815C81ACE3B0E00E94E9AC9C
:1050B000C60ED71EE81EF91EC0924F06D0925006AB
:1050C000E0925106F0925206C0926908D0926A08A6
:1050D000E0926B08F0926C0842E06AE088E00E947F
:1050E0004023B80189ED90E10E94F825BE016F5F71
:1050F0007F4F8DEC90E10E94F8252091C4073091FC
:10510000C5074091C6075091C707A0E1BEE00E94C5
:10511000E9AC6B017C0129813A814B815C81ACE374
:10512000B0E00E94E9ACC60ED71EE81EF91EC09280
:105130004F06D0925006E0925106F0925206C0926D
:105140006D08D0926E08E0926F08F092700842E00D
:105150006AE089E00E9440230E9472770E942C0B33
:105160000E94BB200E94511F42E06AE08AE00E9438
:1051700040230F900F900F900F90DF91CF911F91D0
:105180000F91FF90EF90DF90CF90089564EC77E05F
:105190008DE794E10E94F8256091C407609387072A
:1051A00070E085E89CE00C94B80964EC77E081E756
:1051B00094E10E94F8256091C4076093870770E02E
:1051C00085E89CE00C94B80964EC77E081E494E114
:1051D0000E94F8256091C4076093880770E088E812
:1051E0009CE00C94B80964EC77E085E394E10E94BC
:1051F000F8256091C4076093880770E088E89CE018
:105200000C94B80964EC77E085E094E10E94F825FD
:105210006091C4076093890770E08BE89CE00C9470
:10522000B80964EC77E089EF93E10E94F82560917A
:10523000C4076093890770E08BE89CE00C94B80980
:1052400064EC77E089E594E10E94F8256091C40759
:105250007091C50782E00C94E41F64EC77E08DE167
:1052600094E10E94F8256091C4077091C50783E01E
:105270000C94E41F64EC77E081EE93E10E94F82542
:105280006091C4077091C50784E00C94E41F80917D
:10529000A307811132C064EC77E089E895E10E94B0
:1052A000F8258091C4079091C507A091C607B091D9
:1052B000C70781309105A105B10549F460E083E499
:1052C0000E944B1E83E0809321080C94FA1B8230CD
:1052D0009105A105B10531F460E083E40E944B1E05
:1052E00081E0F1CF0397A105B10579F761E083E48F
:1052F0000E944B1E10922108E8CF0895CF93DF93B0
:10530000EB01AB01BC018FE399E00E94DF2421E0B7
:10531000C817D90709F020E0822FDF91CF910895B7
:10532000CF92DF92EF92FF9280916606882309F474
:1053300046C00E944024C0906206D0906306E09070
:105340006406F09065066C157D058E059F05B8F125
:105350008FEB9BE00E94530D8091C70B9091C80B7F
:10536000009791F1049708F44CC010926606809162
:10537000BE078D3021F1C090B807D090B907E090FA
:10538000BA07F090BB0720E030E040EF51E4C701DE
:10539000B6010E948DAB87FD0AC020E030E040E2FC
:1053A00052E4C701B6010E9442AE181644F41092AE
:1053B000B8071092B9071092BA071092BB07FF9076
:1053C000EF90DF90CF9008958091C20B9091C30B26
:1053D000A091C40BB091C50B8093B8079093B90707
:1053E000A093BA07B093BB070E94F7138091BD0743
:1053F000882321F00E9420141092BD0710926106AC
:10540000B4CF80916106882349F01092B8071092BA
:10541000B9071092BA071092BB07A7CF81E080931B
:105420006106A3CF0F931F9380916006882351F1EB
:105430000E94402400915C0610915D0620915E065A
:1054400030915F066017710782079307D8F089ECE7
:105450009BE00E94530D8091D10B9091D20B00974D
:10546000A1F0049738F1109260068091B6079091F0
:10547000B70784569109833C914020F01092B707FA
:105480001092B6071F910F9108956091CC0B709107
:10549000CD0B8091CE0B9091CF0B0E9413AE7093E9
:1054A000B7076093B6070E943B140E94F71310924F
:1054B0005B06D9CF80915B06882329F01092B7074D
:1054C0001092B607D0CF81E080935B06CCCF2F92AD
:1054D0003F924F925F926F927F928F929F92AF9284
:1054E000BF92CF92DF92EF92FF920F931F93CF93D1
:1054F000DF938091BE078330D1F186E2282E88E0C9
:10550000382EC1EBD7E00AE912E0F10181911F01C9
:10551000811102C0188204C08130E1F582A5888320
:10552000F101C7A0D12CF12CE12CA9912FEF30E093
:1055300040E050E02C193D094E095F09B0E00E949F
:10554000E9AC24E630E040E050E00E94CAACC20E74
:10555000D31EE41EF51E6C2D70E0F80181918F01C1
:105560000E94E41F2DE932E02017310771F6DF9128
:10557000CF911F910F91FF90EF90DF90CF90BF9050
:10558000AF909F908F907F906F905F904F903F90E3
:105590002F900895823021F680917207882309F4B4
:1055A00047C00E944024C0907307D0907407E090D9
:1055B0007507F09076076C197D098E099F09C090D8
:1055C0003E08D0903F08E0904008F0904108C61691
:1055D000D706E806F906E8F080915908888380919B
:1055E000DF05882321F01092DF050E948D1B80913A
:1055F000DE05882321F00E94B01A1092DE0580910A
:105600008307811110928307F10182A5811188CF50
:1056100081CF802F2AE932E0821B8230A9F71092D5
:1056200072071092DD050E94D21C0E942F2EECCF33
:105630008091DC058823B9F10E944024C090D805F0
:10564000D090D905E090DA05F090DB056C197D0962
:105650008E099F09C0905508D0905608E0905708D1
:10566000F0905808C616D706E806F906C8F08881F3
:1056700090915408891790F48F5F888331E03093BC
:105680008D028091D70581111092D7058091DF0599
:10569000882309F4B4CF1092DF05B1CF9883F1CFFE
:1056A0001092DC05B1CF809183078823C9F10E9455
:1056B0004024C0907707D0907807E0907907F09069
:1056C0007A076C197D098E099F09C090E005D0907A
:1056D000E105E090E205F090E305C616D706E8067E
:1056E000F90608F48FCF8881909154088917B0F497
:1056F0008F5F888381E080938D028091DF05811127
:1057000005C00E94B01A91E09093DF058091D70503
:10571000882309F479CF1092D70576CF9883EDCFFF
:1057200062A5662309F4A7C0C0901906D0901A0696
:10573000E0901B06F0901C0620917F0730918007B7
:10574000409181075091820780901506909016062F
:10575000A0901706B09018062C153D054E055F0564
:10576000A0F1281539054A055B0578F540905A08DF
:10577000512C712C612C2C193D094E095F0970E0E8
:1057800090E080E064197509860997090E9447AE88
:10579000A50194012C193D094E095F090E94CAAC6C
:1057A000420E531E641E751E48828091DF058823B9
:1057B00021F00E94B01A1092DF058091D70588234E
:1057C00009F41DCF1092D7051ACF409001065090D2
:1057D00002066090030670900406281539054A05F4
:1057E0005B0590F0241535054605570568F488815A
:1057F000861730F48F5F8883F1E0F0938D02D5CF68
:10580000688310928D02D1CF80915A0824153505F6
:105810004605570570F18090ED059090EE05A0903B
:10582000EF05B090F005281539054A055B0508F528
:10583000C62ED12CF12CE12C241935094609570923
:1058400090E0B0E0A0E0BC01CD016C197D098E09AB
:105850009F090E9447AEA501940124193509460904
:1058600057090E94CAACC20ED31EE41EF51EC882A0
:105870009CCF88839ACF188298CF64EC77E089E830
:1058800095E10E94F8258091C4079091C507A091E9
:10589000C607B091C70787309105A105B10539F456
:1058A00081E080931E080E94CC0E0C948D1B0697FD
:1058B000A105B105D1F710921E081092E0051092D3
:1058C000E1051092E2051092E305109283070E9411
:1058D000672AEBCF64EC77E089E895E10E94F82530
:1058E0008091C4079091C507A091C607B091C707E2
:1058F0008B319105A105B10549F482E0809326081A
:105900000E94101B0E94672A0C9475148C3191051B
:10591000A105B10511F481E0F1CF4A97A105B105C8
:1059200079F710922608ECCF64EC77E089E895E1EE
:105930000E94F8258091C4079091C507A091C607E1
:10594000B091C7078E319105A105B10549F482E0F8
:10595000809327080E94F71A0E94672A0C94671404
:105960008F319105A105B10511F481E0F1CF4D977B
:10597000A105B10579F710922708ECCF64EC77E028
:1059800089E895E10E94F8258091C4079091C507A8
:10599000A091C607B091C70781329105A105B10555
:1059A00049F482E0809328080E94DE1A0E94672A48
:1059B0000C94591482329105A105B10511F481E0CE
:1059C000F1CF8097A105B10579F710922808ECCFA7
:1059D000EF92FF920F931F93CF93DF9364EC77E0E6
:1059E00089E594E10E94F825CEE1D8E004EC17E0C7
:1059F000F801808188AB43E064E181E00E944023AC
:105A0000B8018DE194E10E94F825F801808189AB0D
:105A100043E064E182E00E944023B80181EE93E11B
:105A20000E94F825F80180818AAB43E064E183E0BD
:105A30000E944023B8018DE494E10E94F825F8010A
:105A400080818BAB95EAE92E97E0F92EF7018487E8
:105A500043E064E184E00E944023B80181E194E1E5
:105A60000E94F825F80180818CABF701858743E01F
:105A700064E185E00E944023B80185ED93E10E9436
:105A8000F825F80180818DABF701868743E064E15A
:105A900086E00E944023B8018DE794E10E94F8253A
:105AA000F80180818CA343E064E187E00E944023F9
:105AB000B80181E494E10E94F825F80180818DA36A
:105AC00043E064E188E00E944023B80185E094E16E
:105AD0000E94F825F80180818EA343E064E189E00B
